:020000040000fa
:080000000002040000000000f2
:020000040000fa
:04000800fa020000f8
:020000040000fa
:04000c000c030000e1
:020000040000fa
:0400100024030000c5
:020000040000fa
:0400140002030000e3
:020000040000fa
:0400180014030000cd
:020000040000fa
:04001c001c030000c1
:020000040000fa
:040020002c030000ad
:020000040000fa
:0400240034030000a1
:020000040000fa
:04002800340300009d
:020000040000fa
:04002c003403000099
:020000040000fa
:040030003403000095
:020000040000fa
:040034003403000091
:020000040000fa
:04003800340300008d
:020000040000fa
:04003c003403000089
:020000040000fa
:040040003403000085
:020000040000fa
:040044003403000081
:020000040000fa
:04004800340300007d
:020000040000fa
:04004c003403000079
:020000040000fa
:040050003403000075
:020000040000fa
:040054003403000071
:020000040000fa
:04005800340300006d
:020000040000fa
:04005c003403000069
:020000040000fa
:040060003403000065
:020000040000fa
:040064003403000061
:020000040000fa
:04006800340300005d
:020000040000fa
:04006c003403000059
:020000040000fa
:040070003403000055
:020000040000fa
:040074003403000051
:020000040000fa
:04007800340300004d
:020000040000fa
:04007c003403000049
:020000040000fa
:040080003403000045
:020000040000fa
:040084003403000041
:020000040000fa
:04008800340300003d
:020000040000fa
:04008c003403000039
:020000040000fa
:040090003403000035
:020000040000fa
:040094003403000031
:020000040000fa
:04009800340300002d
:020000040000fa
:04009c003403000029
:020000040000fa
:0400a0003403000025
:020000040000fa
:0400a4003403000021
:020000040000fa
:0400a800340300001d
:020000040000fa
:0400ac003403000019
:020000040000fa
:0400b0003403000015
:020000040000fa
:0400b4003403000011
:020000040000fa
:0400b800340300000d
:020000040000fa
:0400bc003403000009
:020000040000fa
:0400c0003403000005
:020000040000fa
:0400c4003403000001
:020000040000fa
:0400c80034030000fd
:020000040000fa
:0400cc0034030000f9
:020000040000fa
:0400d00034030000f5
:020000040000fa
:0400d40034030000f1
:020000040000fa
:0400d80034030000ed
:020000040000fa
:0400dc0034030000e9
:020000040000fa
:0400e00034030000e5
:020000040000fa
:0400e40034030000e1
:020000040000fa
:0400e80034030000dd
:020000040000fa
:0400ec0034030000d9
:020000040000fa
:0400f00034030000d5
:020000040000fa
:0400f40034030000d1
:020000040000fa
:0400f80034030000cd
:020000040000fa
:0400fc0034030000c9
:020000040000fa
:0401000034030000c4
:020000040000fa
:0401040034030000c0
:020000040000fa
:0401080034030000bc
:020000040000fa
:04010c0034030000b8
:020000040000fa
:0401100034030000b4
:020000040000fa
:0401140034030000b0
:020000040000fa
:0401180034030000ac
:020000040000fa
:04011c0034030000a8
:020000040000fa
:0401200034030000a4
:020000040000fa
:0401240034030000a0
:020000040000fa
:04012800340300009c
:020000040000fa
:04012c003403000098
:020000040000fa
:040130003403000094
:020000040000fa
:040134003403000090
:020000040000fa
:04013800340300008c
:020000040000fa
:04013c003403000088
:020000040000fa
:040140003403000084
:020000040000fa
:040144003403000080
:020000040000fa
:04014800340300007c
:020000040000fa
:04014c003403000078
:020000040000fa
:040150003403000074
:020000040000fa
:040154003403000070
:020000040000fa
:04015800340300006c
:020000040000fa
:04015c003403000068
:020000040000fa
:040160003403000064
:020000040000fa
:040164003403000060
:020000040000fa
:04016800340300005c
:020000040000fa
:04016c003403000058
:020000040000fa
:040170003403000054
:020000040000fa
:040174003403000050
:020000040000fa
:04017800340300004c
:020000040000fa
:04017c003403000048
:020000040000fa
:040180003403000044
:020000040000fa
:040184003403000040
:020000040000fa
:04018800340300003c
:020000040000fa
:04018c003403000038
:020000040000fa
:040190003403000034
:020000040000fa
:040194003403000030
:020000040000fa
:04019800340300002c
:020000040000fa
:04019c003403000028
:020000040000fa
:0401a0003403000024
:020000040000fa
:0401a4003403000020
:020000040000fa
:0401a800340300001c
:020000040000fa
:0401ac003403000018
:020000040000fa
:0401b0003403000014
:020000040000fa
:0401b4003403000010
:020000040000fa
:0401b800340300000c
:020000040000fa
:0401bc003403000008
:020000040000fa
:0401c0003403000004
:020000040000fa
:0401c4003403000000
:020000040000fa
:0401c80034030000fc
:020000040000fa
:0401cc0034030000f8
:020000040000fa
:0401d00034030000f4
:020000040000fa
:0401d40034030000f0
:020000040000fa
:0401d80034030000ec
:020000040000fa
:0401dc0034030000e8
:020000040000fa
:0401e00034030000e4
:020000040000fa
:0401e40034030000e0
:020000040000fa
:0401e80034030000dc
:020000040000fa
:0401ec0034030000d8
:020000040000fa
:0401f00034030000d4
:020000040000fa
:0401f40034030000d0
:020000040000fa
:0401f80034030000cc
:020000040000fa
:0401fc0034030000c8
:020000040000fa
:0402000034030000c3
:020000040000fa
:0402040034030000bf
:020000040000fa
:0402080034030000bb
:020000040000fa
:04020c0034030000b7
:020000040000fa
:0402100034030000b3
:020000040000fa
:0402140034030000af
:020000040000fa
:0402180034030000ab
:020000040000fa
:04021c0034030000a7
:020000040000fa
:0402200034030000a3
:020000040000fa
:04022400340300009f
:020000040000fa
:04022800340300009b
:020000040000fa
:04022c003403000097
:020000040000fa
:040230003403000093
:020000040000fa
:04023400340300008f
:020000040000fa
:04023800340300008b
:020000040000fa
:04023c003403000087
:020000040000fa
:040240003403000083
:020000040000fa
:04024400340300007f
:020000040000fa
:04024800340300007b
:020000040000fa
:04024c003403000077
:020000040000fa
:040250003403000073
:020000040000fa
:04025400340300006f
:020000040000fa
:04025800340300006b
:020000040000fa
:04025c003403000067
:020000040000fa
:040260003403000063
:020000040000fa
:04026400340300005f
:020000040000fa
:04026800340300005b
:020000040000fa
:04026c003403000057
:020000040000fa
:040270003403000053
:020000040000fa
:04027400340300004f
:020000040000fa
:04027800340300004b
:020000040000fa
:04027c003403000047
:020000040000fa
:040280003403000043
:020000040000fa
:100400004f0221000eff2c000e01880000000000aa
:10041000000020000000e000020032000001200087
:100420002002880014000700910007000000e0008f
:1004300003003a00406b200001002000020037005a
:100440000000200001002000810f70000100320038
:100450000f000700000020000000e0000200320052
:100460000000020000000000520502000000000031
:100470000040da000000fe00200020000000e00044
:1004800002003200100020009001880000000600e9
:10049000a1028800800478000000eb001f003700f4
:1004a000e284440054a0b4009905ba00e2844400f8
:1004b00054a0b4009906ba00e284440054a0b400e9
:1004c0000006eb00476fde00fd07b200ae018800ba
:1004d000636ce10003003a000ad801000000eb0061
:1004e0000e003700606ce10008003a00004deb00a0
:1004f0000a05e800020039003420ec000af0a000f0
:100500008b05e900f9ff3e00040037006168e10057
:10051000010032000086eb000b00070019c7ba008b
:100520000e04e0001905ba0003003a000a00e000da
:10053000dbff3a0000000600fe07b200ae028800b2
:100540008a047800f5ff37000cd0a300e20f4d00bd
:100550001c00390089027800354dba000a05e80010
:10056000020039003420ec000af0a0008b05e900fd
:100570000f003200254dba000a05e80002003900dc
:100580003420ec000af0a0008b05e90008003200de
:100590000c00e0000600320015cdba000a05e800a4
:1005a000020039003420ec000af0a0008b05e900bd
:1005b0008984e80054a0b4000b00e000e2ff3a0098
:1005c000000006009902ba00055d78008b05e9007d
:1005d000f7ff3200c82ade00055d78008b05e900d0
:1005e000f3ff32000c00e000f1ff320019ddba0029
:1005f000eeff37003600f800c028a9000000eb002d
:10060000ce0107003600f800d0010700c048a9005d
:1006100010002000c90107003600f800c068a900da
:1006200020002000c50107003600f800c088a9009e
:1006300030002000c10107003600f800c0a8a90062
:1006400040002000bd0107003600f800c608a900e0
:1006500070002000b90107003600f800c488a90026
:10066000a0002000b50107000040da000000fe00f5
:040670000000050081
:020000040000fa
:100674000000fa00003a80000080fa000000060042
:100684000200fa00faff0700000f78001e0078004d
:10069400240007000004e0000200320000002800eb
:1006a400710007001e0078002a0007000004e00023
:1006b40002003200000024006b0007001e007800d6
:1006c400320007000004e000020032000020200095
:1006d400650007001e0078003a0007000004e000ef
:1006e40002003200000820005f0007001e007800ae
:1006f400420007000004e000020032000004200071
:10070400590007001e0078004a0007000004e000ba
:100714000200320000012000530007000080fa00ac
:10072400000006000400fa00100798000040eb00e7
:10073400004f78001e0090000000e00002003d0021
:1007440010c0b300004f78001e4078000080fa000b
:10075400000006000400fa00100798000040eb00b7
:10076400004f78009e00900000002400008060008c
:100774000000e0000200320010c0b300004f780017
:100784001e4078000080fa00000006000400fa0011
:10079400100798000040eb00004f78009e00900086
:1007a40000202000008060000000e0000200320011
:1007b40010c0b300004f78001e4078000080fa009b
:1007c400000006000400fa00100798000040eb0047
:1007d400004f78009e009000000820000080600018
:1007e4000000e0000200320010c0b300004f7800a7
:1007f4001e4078000080fa00000006000400fa00a1
:10080400100798000040eb00004f78009e00900015
:1008140000042000008060000000e00002003200bc
:1008240010c0b300004f78001e4078000080fa002a
:10083400000006000400fa00100798000040eb00d6
:10084400004f78001e009000700060000000e0007f
:100854000200320010c0b300004f78001e40780040
:100864000080fa00000006000200fa00000f780081
:100874009e80ea00003a800000806000003a880010
:100884000080fa00000006000000fa004027ef0094
:100894000080fa00000006000400fa0020479800d7
:1008a400a0cc210001002000150107000000000079
:1008b40000138000620060000000e000fcff3a00ca
:1008c4002e4090000080fb004013880000000000d0
:1008d40000138000610060000000e000fcff3200b3
:1008e40040138000004f78000080fa0000000600ea
:1008f4000200fa00a0cc2100010020000001070042
:100904000000000000138000620060000000e000ae
:10091400fcff3a00f00f20004013880000000000a4
:1009240000138000610060000000e000fcff320062
:1009340040138000004f78001e4078000080fa00c9
:10094400000006000000fa006382a9006362a900a7
:100954006342a9006322a9006302a90062e2a9001c
:1009640062c2a80062a2a8001113800030fe2f000a
:10097400008060001013880011138000c0ff2f0056
:10098400008060001013880065e2a9006402a900d9
:100994003134800000fc2f00008060009000b30020
:1009a4003034880061368000f00f280080806000b9
:1009b400008022000100700060368800213480002d
:1009c400f00f2c000080600000b0a00020348800ec
:1009d4006136800000f82f008080600090022000c3
:1009e400010070006036880010cea80061e2a80003
:1009f4000080fa00000006000000fa00118ea90031
:100a0400158ea80011aea90015aea80011cea9003c
:100a140015cea8000080fa00000006000000fa00cd
:100a240015aea9000080fa00000006000000fa00dc
:100a340015aea8000080fa00000006000000fa00cd
:100a440015cea9000080fa00000006000000fa009c
:100a540015cea8000080fa00000006000000fa008d
:100a6400158ea9000080fa00000006000000fa00bc
:100a7400158ea8000080fa00000006000000fa00ad
:100a8400000ea900040ea800108ea900148ea80060
:100a940011eea90015eea8000080fa00000006007f
:100aa4000600fa0010079800210798006700070065
:100ab4003b000700f1ff0700a2ff0700ceff07007d
:100ac40080ee2300b10020008d000700d3ff070053
:100ad40030c0b30070ff070080c0b3006eff070092
:100ae400d2ff0700cdff070000c8b3006aff07006c
:100af4007fff0700004f7800ccff07001e407800fe
:100b0400f64f400003003a00040ea90015eea800b9
:100b14000200370015eea900040ea80080ee2300a1
:100b2400b100200076000700eeff37000000fa0055
:100b340000402800001988002223ef002423ef003e
:100b44002823ef002e23ef003023ef003223ef00a1
:100b54002623ef00101980004200de007f40600071
:100b640000f0b7000080fa00000006000000fa0060
:100b74000080fa00000006000000fa000140800036
:100b840000002200008060000000e000020032004b
:100b9400f6ff070001a8a9000080fa000000060083
:100ba4000000fa0000042300203a88004827ef00e0
:100bb4004e27ef00a0032000303a88006027ef00a2
:100bc4006227ef006427ef006627ef006c27ef0031
:100bd4007200200080072000a10920003374200047
:100be4008049780081497800824978000001eb004f
:100bf40060042000710520002374200080497800df
:100c040081497800824978000080fa0000000600db
:100c14000200fa00000f780021028000200f20005b
:100c2400008060001e007000200288000080fa002e
:100c3400000006000000fa00c3e8a800000000005d
:100c4400000000000080fa00000006000000fa0026
:100c540008000700d2ff07004d000700b3ff07009c
:100c6400f4ff070000022000e9ff07000080fa00fb
:100c7400000006000000fa00042eef00142eef001e
:100c8400f001200000708800f0ef2f0080708800d1
:100c94000c2eef001c2eef000a2eef001a2eef0090
:100ca400062eef00162eef00300120007070880031
:100cb40030102000f07088000080fa000000060068
:100cc4000000fa00b6ff07000080fa0000000600ea
:100cd4000000fa00003a80000080fa0000000600dc
:100ce4000000fa0066fe07000080fa00000006001b
:100cf4000000fa00e4fe07000080fa00000006008d
:020000040000fa
:100d0400f03fb1000180b10006003500ee03090098
:100d140000000000403fb1000180b100fbff3d0036
:100d24001000b000203fb000020035000080090030
:080d34000000000000000600b1
:020000040000fa
:100d3c00000f78009e00780011808800ffff3700bc
:100d4c000000fa004000210080077800c00121005b
:0c0d5c00000188000080fa000000060082
:020000040000fa
:100d680000100000020000008000000004100000d5
:100d780020000000800000000210000002000000b7
:0c0d880082000000ffff000000000000df
:020000040000fa
:0c0d94000000fa000080fa0000000600d9
:020000040000fa
:02000004000af0
:04afe000cfff00009f
:020000040000fa
:02000004000af0
:04afe400cfff00009b
:020000040000fa
:02000004000af0
:04afe8007fff0000e7
:020000040000fa
:02000004000af0
:04afec00bbff0000a7
:020000040000fa
:02000004000af0
:04aff000ffff00005f
:020000040000fa
:02000004000af0
:04aff400ffff00005b
:00000001FF
