:020000040000fa
:080000000002040000000000f2
:020000040000fa
:04000800fa020000f8
:020000040000fa
:04000c000c030000e1
:020000040000fa
:0400100024030000c5
:020000040000fa
:0400140002030000e3
:020000040000fa
:0400180014030000cd
:020000040000fa
:04001c001c030000c1
:020000040000fa
:040020002c030000ad
:020000040000fa
:0400240034030000a1
:020000040000fa
:04002800340300009d
:020000040000fa
:04002c003403000099
:020000040000fa
:040030003403000095
:020000040000fa
:040034003403000091
:020000040000fa
:04003800340300008d
:020000040000fa
:04003c003403000089
:020000040000fa
:040040003403000085
:020000040000fa
:040044003403000081
:020000040000fa
:04004800340300007d
:020000040000fa
:04004c003403000079
:020000040000fa
:040050003403000075
:020000040000fa
:040054003403000071
:020000040000fa
:04005800340300006d
:020000040000fa
:04005c003403000069
:020000040000fa
:040060003403000065
:020000040000fa
:040064003403000061
:020000040000fa
:04006800340300005d
:020000040000fa
:04006c003403000059
:020000040000fa
:040070003403000055
:020000040000fa
:040074003403000051
:020000040000fa
:04007800340300004d
:020000040000fa
:04007c003403000049
:020000040000fa
:040080003403000045
:020000040000fa
:040084003403000041
:020000040000fa
:04008800340300003d
:020000040000fa
:04008c003403000039
:020000040000fa
:040090003403000035
:020000040000fa
:040094003403000031
:020000040000fa
:04009800340300002d
:020000040000fa
:04009c003403000029
:020000040000fa
:0400a0003403000025
:020000040000fa
:0400a4003403000021
:020000040000fa
:0400a800340300001d
:020000040000fa
:0400ac003403000019
:020000040000fa
:0400b0003403000015
:020000040000fa
:0400b4003403000011
:020000040000fa
:0400b800340300000d
:020000040000fa
:0400bc003403000009
:020000040000fa
:0400c0003403000005
:020000040000fa
:0400c4003403000001
:020000040000fa
:0400c80034030000fd
:020000040000fa
:0400cc0034030000f9
:020000040000fa
:0400d00034030000f5
:020000040000fa
:0400d40034030000f1
:020000040000fa
:0400d80034030000ed
:020000040000fa
:0400dc0034030000e9
:020000040000fa
:0400e00034030000e5
:020000040000fa
:0400e40034030000e1
:020000040000fa
:0400e80034030000dd
:020000040000fa
:0400ec0034030000d9
:020000040000fa
:0400f00034030000d5
:020000040000fa
:0400f40034030000d1
:020000040000fa
:0400f80034030000cd
:020000040000fa
:0400fc0034030000c9
:020000040000fa
:0401000034030000c4
:020000040000fa
:0401040034030000c0
:020000040000fa
:0401080034030000bc
:020000040000fa
:04010c0034030000b8
:020000040000fa
:0401100034030000b4
:020000040000fa
:0401140034030000b0
:020000040000fa
:0401180034030000ac
:020000040000fa
:04011c0034030000a8
:020000040000fa
:0401200034030000a4
:020000040000fa
:0401240034030000a0
:020000040000fa
:04012800340300009c
:020000040000fa
:04012c003403000098
:020000040000fa
:040130003403000094
:020000040000fa
:040134003403000090
:020000040000fa
:04013800340300008c
:020000040000fa
:04013c003403000088
:020000040000fa
:040140003403000084
:020000040000fa
:040144003403000080
:020000040000fa
:04014800340300007c
:020000040000fa
:04014c003403000078
:020000040000fa
:040150003403000074
:020000040000fa
:040154003403000070
:020000040000fa
:04015800340300006c
:020000040000fa
:04015c003403000068
:020000040000fa
:040160003403000064
:020000040000fa
:040164003403000060
:020000040000fa
:04016800340300005c
:020000040000fa
:04016c003403000058
:020000040000fa
:040170003403000054
:020000040000fa
:040174003403000050
:020000040000fa
:04017800340300004c
:020000040000fa
:04017c003403000048
:020000040000fa
:040180003403000044
:020000040000fa
:040184003403000040
:020000040000fa
:04018800340300003c
:020000040000fa
:04018c003403000038
:020000040000fa
:040190003403000034
:020000040000fa
:040194003403000030
:020000040000fa
:04019800340300002c
:020000040000fa
:04019c003403000028
:020000040000fa
:0401a0003403000024
:020000040000fa
:0401a4003403000020
:020000040000fa
:0401a800340300001c
:020000040000fa
:0401ac003403000018
:020000040000fa
:0401b0003403000014
:020000040000fa
:0401b4003403000010
:020000040000fa
:0401b800340300000c
:020000040000fa
:0401bc003403000008
:020000040000fa
:0401c0003403000004
:020000040000fa
:0401c4003403000000
:020000040000fa
:0401c80034030000fc
:020000040000fa
:0401cc0034030000f8
:020000040000fa
:0401d00034030000f4
:020000040000fa
:0401d40034030000f0
:020000040000fa
:0401d80034030000ec
:020000040000fa
:0401dc0034030000e8
:020000040000fa
:0401e00034030000e4
:020000040000fa
:0401e40034030000e0
:020000040000fa
:0401e80034030000dc
:020000040000fa
:0401ec0034030000d8
:020000040000fa
:0401f00034030000d4
:020000040000fa
:0401f40034030000d0
:020000040000fa
:0401f80034030000cc
:020000040000fa
:0401fc0034030000c8
:020000040000fa
:0402000034030000c3
:020000040000fa
:0402040034030000bf
:020000040000fa
:0402080034030000bb
:020000040000fa
:04020c0034030000b7
:020000040000fa
:0402100034030000b3
:020000040000fa
:0402140034030000af
:020000040000fa
:0402180034030000ab
:020000040000fa
:04021c0034030000a7
:020000040000fa
:0402200034030000a3
:020000040000fa
:04022400340300009f
:020000040000fa
:04022800340300009b
:020000040000fa
:04022c003403000097
:020000040000fa
:040230003403000093
:020000040000fa
:04023400340300008f
:020000040000fa
:04023800340300008b
:020000040000fa
:04023c003403000087
:020000040000fa
:040240003403000083
:020000040000fa
:04024400340300007f
:020000040000fa
:04024800340300007b
:020000040000fa
:04024c003403000077
:020000040000fa
:040250003403000073
:020000040000fa
:04025400340300006f
:020000040000fa
:04025800340300006b
:020000040000fa
:04025c003403000067
:020000040000fa
:040260003403000063
:020000040000fa
:04026400340300005f
:020000040000fa
:04026800340300005b
:020000040000fa
:04026c003403000057
:020000040000fa
:040270003403000053
:020000040000fa
:04027400340300004f
:020000040000fa
:04027800340300004b
:020000040000fa
:04027c003403000047
:020000040000fa
:040280003403000043
:020000040000fa
:100400004f0221000eff2c000e01880000000000aa
:10041000000020000000e000020032000001200087
:100420002002880014000700910007000000e0008f
:1004300003003a0080702000010020000200370015
:100440000000200001002000810f70000100320038
:100450000f000700000020000000e0000200320052
:1004600000000200000000005c0602000000000026
:100470000040da000000fe00200020000000e00044
:1004800002003200100020009001880000000600e9
:10049000a1028800800478000000eb001f003700f4
:1004a000e284440054a0b4009905ba00e2844400f8
:1004b00054a0b4009906ba00e284440054a0b400e9
:1004c0000006eb00476fde00fd07b200ae018800ba
:1004d000636ce10003003a000ad801000000eb0061
:1004e0000e003700606ce10008003a00004deb00a0
:1004f0000a05e800020039003420ec000af0a000f0
:100500008b05e900f9ff3e00040037006168e10057
:10051000010032000086eb000b00070019c7ba008b
:100520000e04e0001905ba0003003a000a00e000da
:10053000dbff3a0000000600fe07b200ae028800b2
:100540008a047800f5ff37000cd0a300e20f4d00bd
:100550001c00390089027800354dba000a05e80010
:10056000020039003420ec000af0a0008b05e900fd
:100570000f003200254dba000a05e80002003900dc
:100580003420ec000af0a0008b05e90008003200de
:100590000c00e0000600320015cdba000a05e800a4
:1005a000020039003420ec000af0a0008b05e900bd
:1005b0008984e80054a0b4000b00e000e2ff3a0098
:1005c000000006009902ba00055d78008b05e9007d
:1005d000f7ff3200c82ade00055d78008b05e900d0
:1005e000f3ff32000c00e000f1ff320019ddba0029
:1005f000eeff37003600f800c028a9000000eb002d
:10060000f80107003600f800fa010700c048a90009
:1006100010002000f30107003600f800c068a900b0
:1006200020002000ef0107003600f800c088a90074
:1006300030002000eb0107003600f800c0a8a90038
:1006400040002000e70107003600f800c608a900b6
:1006500070002000e30107003600f800c488a900fc
:10066000a0002000df0107000040da000000fe00cb
:040670000000050081
:020000040000fa
:100674000000fa000002200010138800100020007f
:1006840020138800c0002800001388000080fa00ae
:10069400000006000400fa00000f7800110798001b
:1006a4000000000000138000620060000000e00011
:1006b400fcff3a001e007800104078000080fb0028
:1006c4004013880000000000011380000002200095
:1006d400008060000000e000fbff3a00401380004f
:1006e400804078001e009000014878000080fa00e5
:1006f400000006001800fa00100f9800210f98005f
:10070400320f98000000eb00000f78000000eb00af
:10071400100798000000eb00700798000000eb0041
:10072400000f980010002000600798001e08900039
:100734000000e00005003a000000eb0050079800bc
:10074400700047002007980004003700ee00900076
:10075400510798009e089000210798003e089000d9
:100764000000e00005003a000000eb00400798009c
:100774006e0047003007980005003700ee00900037
:1007840041079800be08900031079800000000005f
:1007940000138000620060000000e000fcff3a00eb
:1007a4001d00370000138000620060000000e000bc
:1007b40009003a002e009000104078000080fb00f1
:1007c40040138800ae0090005e009000008040005e
:1007d400200798001e0fe80001138000000220008b
:1007e400008060000000e0000b003a00401380002d
:1007f400804078003e00900001487800be009000e0
:100804004e00900000804000300798001e009000c9
:100814000000e800100798002e0890009e00780061
:10082400808f5000dfff3900100037000113800073
:1008340000022000008060000000e0000b003a008d
:1008440040138000804078003e009000014878000a
:10085400be0090004e0090000080400030079800d9
:100864001e0090000000e800100798009e00900011
:100874002e089000808f5000ecff39001e00780095
:100884000080fa00000006000400fa0020479800e7
:100894000e80e8008e0078007eff07001e4078007e
:1008a4000080fa00000006000600fa00000f78003d
:1008b40011079800220798002e0190009e009000d6
:1008c4001e0078008bff07000080fa00000006007d
:1008d4000000fa0011138000004020000080600036
:1008e4000000e00002003a000000eb0001003700c5
:1008f400100020000080fa00000006000000fa004a
:10090400001380000080fa00000006000000fa00d6
:10091400003a80000080fa00000006000200fa009d
:10092400faff0700000f78001e007800240007007b
:100934000004e000020032000000280071000700fb
:100944001e0078002a0007000004e00002003200c4
:10095400000024006b0007001e007800320007002e
:100964000004e000020032000020200065000700bf
:100974001e0078003a0007000004e0000200320084
:10098400000820005f0007001e00780042000700f6
:100994000004e000020032000004200059000700b7
:1009a4001e0078004a0007000004e0000200320044
:1009b40000012000530007000080fa000000060038
:1009c4000400fa00100798000040eb00004f780084
:1009d4001e0090000000e00002003d0010c0b300c3
:1009e400004f78001e4078000080fa0000000600e6
:1009f4000400fa00100798000040eb00004f780054
:100a04009e00900000002400008060000000e000d0
:100a14000200320010c0b300004f78001e4078007e
:100a24000080fa00000006000400fa001007980095
:100a34000040eb00004f78009e0090000020200052
:100a4400008060000000e0000200320010c0b3002b
:100a5400004f78001e4078000080fa000000060075
:100a64000400fa00100798000040eb00004f7800e3
:100a74009e00900000082000008060000000e0005c
:100a84000200320010c0b300004f78001e4078000e
:100a94000080fa00000006000400fa001007980025
:100aa4000040eb00004f78009e00900000042000fe
:100ab400008060000000e0000200320010c0b300bb
:100ac400004f78001e4078000080fa000000060005
:100ad4000400fa00100798000040eb00004f780073
:100ae4001e009000700060000000e0000200320070
:100af40010c0b300004f78001e4078000080fa0058
:100b0400000006000200fa00000f78009e80ea0050
:100b1400003a800000806000003a88000080fa00fb
:100b2400000006000000fa004027ef000080fa00f1
:100b3400000006000000fa00042eef00142eef005f
:100b4400f001200000708800f0e72f00807088001a
:100b54000c2eef001c2eef000a2eef001a2eef00d1
:100b6400062eef00162eef00300120007070880072
:100b740030102000f07088006136800000f82f00eb
:100b840080806000900220000100700060368800c0
:100b940021348000f00f2c000080600000b0a00021
:100ba400203488000080fa00000006000000fa00eb
:100bb40000402800001988002223ef002423ef00be
:100bc4002823ef002e23ef003023ef003223ef0021
:100bd4002623ef00101980004200de007f406000f1
:100be40002f0b7000080fa00000006000000fa00de
:100bf4000080fa00000006000000fa0001408000b6
:100c040000002200008060000000e00002003200ca
:100c1400f6ff070001a8a9000080fa000000060002
:100c24000000fa0000042300203a88004827ef005f
:100c34004e27ef00a0032000303a88006027ef0021
:100c44006227ef006427ef006627ef006c27ef00b0
:100c54007200200080072000a109200033742000c6
:100c64008049780081497800824978000001eb00ce
:100c7400600420007105200023742000804978005e
:100c840081497800824978000080fa00000006005b
:100c94000000fa00000ea900040ea800108ea9009e
:100ca400148ea80011eea90015eea8000080fa0029
:100cb400000006000400fa00000f780011079800f5
:100cc4001e000700d6ff0700f1ff0700148ea900dd
:100cd400040ea90015eea90080ee2300b100200047
:100ce40031000700148ea800040ea80015eea80019
:100cf40080ee2300b10020002b000700f3ff370033
:100d04000200fa00000f780021028000200f20006a
:100d1400008060001e007000200288000080fa003d
:100d2400000006000000fa00c3e8a800000000006c
:100d3400000000000080fa00000006000000fa0035
:100d44007cff07003c000700b5ff070048fe0700d2
:100d540096ff0700f3ff070000022000e8ff0700ea
:100d64000080fa00000006000000fa00acff070053
:100d74000080fa00000006000000fa00003a80003b
:100d84000080fa00000006000000fa00e3fe0700fd
:100d94000080fa00000006000000fa0061ff07006e
:080da4000080fa0000000600c7
:020000040000fa
:100dac00f03fb1000180b10006003500ee030900f0
:100dbc0000000000403fb1000180b100fbff3d008e
:100dcc001000b000203fb000020035000080090088
:080ddc00000000000000060009
:020000040000fa
:100de400000f78009e00780001808800ffff370024
:100df4000000fa004000210080077800c0012100b3
:0c0e0400000188000080fa0000000600d9
:020000040000fa
:100e1000041000002000000080000000001000000e
:100e20000200000082000000ffff0000021000002e
:0c0e300002000000800000000000000034
:020000040000fa
:0c0e3c000000fa000080fa000000060030
:020000040000fa
:02000004000af0
:04afe000cfff00009f
:020000040000fa
:02000004000af0
:04afe400cfff00009b
:020000040000fa
:02000004000af0
:04afe8007fff0000e7
:020000040000fa
:02000004000af0
:04afec00bbff0000a7
:020000040000fa
:02000004000af0
:04aff000ffff00005f
:020000040000fa
:02000004000af0
:04aff400ffff00005b
:00000001FF
